{
    "contractName": "DsToken",
    "abi": [
        {
            "inputs": [
                {
                    "internalType": "address",
                    "name": "owner_",
                    "type": "address"
                },
                {
                    "internalType": "uint256",
                    "name": "initialSupply",
                    "type": "uint256"
                }
            ],
            "stateMutability": "nonpayable",
            "type": "constructor"
        },
        {
            "anonymous": false,
            "inputs": [
                {
                    "indexed": true,
                    "internalType": "address",
                    "name": "owner",
                    "type": "address"
                },
                {
                    "indexed": true,
                    "internalType": "address",
                    "name": "spender",
                    "type": "address"
                },
                {
                    "indexed": false,
                    "internalType": "uint256",
                    "name": "value",
                    "type": "uint256"
                }
            ],
            "name": "Approval",
            "type": "event"
        },
        {
            "anonymous": false,
            "inputs": [
                {
                    "indexed": true,
                    "internalType": "address",
                    "name": "from",
                    "type": "address"
                },
                {
                    "indexed": true,
                    "internalType": "address",
                    "name": "to",
                    "type": "address"
                },
                {
                    "indexed": false,
                    "internalType": "uint256",
                    "name": "value",
                    "type": "uint256"
                }
            ],
            "name": "Transfer",
            "type": "event"
        },
        {
            "inputs": [
                {
                    "internalType": "address",
                    "name": "owner",
                    "type": "address"
                },
                {
                    "internalType": "address",
                    "name": "spender",
                    "type": "address"
                }
            ],
            "name": "allowance",
            "outputs": [
                {
                    "internalType": "uint256",
                    "name": "",
                    "type": "uint256"
                }
            ],
            "stateMutability": "view",
            "type": "function"
        },
        {
            "inputs": [
                {
                    "internalType": "address",
                    "name": "spender",
                    "type": "address"
                },
                {
                    "internalType": "uint256",
                    "name": "amount",
                    "type": "uint256"
                }
            ],
            "name": "approve",
            "outputs": [
                {
                    "internalType": "bool",
                    "name": "",
                    "type": "bool"
                }
            ],
            "stateMutability": "nonpayable",
            "type": "function"
        },
        {
            "inputs": [
                {
                    "internalType": "address",
                    "name": "account",
                    "type": "address"
                }
            ],
            "name": "balanceOf",
            "outputs": [
                {
                    "internalType": "uint256",
                    "name": "",
                    "type": "uint256"
                }
            ],
            "stateMutability": "view",
            "type": "function"
        },
        {
            "inputs": [],
            "name": "decimals",
            "outputs": [
                {
                    "internalType": "uint8",
                    "name": "",
                    "type": "uint8"
                }
            ],
            "stateMutability": "view",
            "type": "function"
        },
        {
            "inputs": [
                {
                    "internalType": "address",
                    "name": "spender",
                    "type": "address"
                },
                {
                    "internalType": "uint256",
                    "name": "subtractedValue",
                    "type": "uint256"
                }
            ],
            "name": "decreaseAllowance",
            "outputs": [
                {
                    "internalType": "bool",
                    "name": "",
                    "type": "bool"
                }
            ],
            "stateMutability": "nonpayable",
            "type": "function"
        },
        {
            "inputs": [
                {
                    "internalType": "address",
                    "name": "spender",
                    "type": "address"
                },
                {
                    "internalType": "uint256",
                    "name": "addedValue",
                    "type": "uint256"
                }
            ],
            "name": "increaseAllowance",
            "outputs": [
                {
                    "internalType": "bool",
                    "name": "",
                    "type": "bool"
                }
            ],
            "stateMutability": "nonpayable",
            "type": "function"
        },
        {
            "inputs": [],
            "name": "name",
            "outputs": [
                {
                    "internalType": "string",
                    "name": "",
                    "type": "string"
                }
            ],
            "stateMutability": "view",
            "type": "function"
        },
        {
            "inputs": [],
            "name": "symbol",
            "outputs": [
                {
                    "internalType": "string",
                    "name": "",
                    "type": "string"
                }
            ],
            "stateMutability": "view",
            "type": "function"
        },
        {
            "inputs": [],
            "name": "tokenOwner",
            "outputs": [
                {
                    "internalType": "address",
                    "name": "",
                    "type": "address"
                }
            ],
            "stateMutability": "view",
            "type": "function"
        },
        {
            "inputs": [],
            "name": "totalSupply",
            "outputs": [
                {
                    "internalType": "uint256",
                    "name": "",
                    "type": "uint256"
                }
            ],
            "stateMutability": "view",
            "type": "function"
        },
        {
            "inputs": [
                {
                    "internalType": "address",
                    "name": "recipient",
                    "type": "address"
                },
                {
                    "internalType": "uint256",
                    "name": "amount",
                    "type": "uint256"
                }
            ],
            "name": "transfer",
            "outputs": [
                {
                    "internalType": "bool",
                    "name": "",
                    "type": "bool"
                }
            ],
            "stateMutability": "nonpayable",
            "type": "function"
        },
        {
            "inputs": [
                {
                    "internalType": "address",
                    "name": "sender",
                    "type": "address"
                },
                {
                    "internalType": "address",
                    "name": "recipient",
                    "type": "address"
                },
                {
                    "internalType": "uint256",
                    "name": "amount",
                    "type": "uint256"
                }
            ],
            "name": "transferFrom",
            "outputs": [
                {
                    "internalType": "bool",
                    "name": "",
                    "type": "bool"
                }
            ],
            "stateMutability": "nonpayable",
            "type": "function"
        }
    ],
    "bytecode": "60806040523480156200001157600080fd5b5060405162000c5738038062000c5783398101604081905262000034916200027b565b604051806040016040528060078152602001662239aa37b5b2b760c91b815250604051806040016040528060038152602001621114d560ea1b815250816003908051906020019062000088929190620001d5565b5080516200009e906004906020840190620001d5565b505050620000b38282620000fe60201b60201c565b600580546001600160a01b0319166001600160a01b03841690811790915560405182815260009060008051602062000c378339815191529060200160405180910390a3505062000317565b6001600160a01b038216620001595760405162461bcd60e51b815260206004820152601f60248201527f45524332303a206d696e7420746f20746865207a65726f206164647265737300604482015260640160405180910390fd5b80600260008282546200016d9190620002b5565b90915550506001600160a01b038216600090815260208190526040812080548392906200019c908490620002b5565b90915550506040518181526001600160a01b0383169060009060008051602062000c378339815191529060200160405180910390a35050565b828054620001e390620002da565b90600052602060002090601f01602090048101928262000207576000855562000252565b82601f106200022257805160ff191683800117855562000252565b8280016001018555821562000252579182015b828111156200025257825182559160200191906001019062000235565b506200026092915062000264565b5090565b5b8082111562000260576000815560010162000265565b600080604083850312156200028e578182fd5b82516001600160a01b0381168114620002a5578283fd5b6020939093015192949293505050565b60008219821115620002d557634e487b7160e01b81526011600452602481fd5b500190565b600181811c90821680620002ef57607f821691505b602082108114156200031157634e487b7160e01b600052602260045260246000fd5b50919050565b61091080620003276000396000f3fe608060405234801561001057600080fd5b50600436106100b45760003560e01c806370a082311161007157806370a082311461014157806395d89b411461016a578063a3e6761014610172578063a457c2d71461018d578063a9059cbb146101a0578063dd62ed3e146101b357600080fd5b806306fdde03146100b9578063095ea7b3146100d757806318160ddd146100fa57806323b872dd1461010c578063313ce5671461011f578063395093511461012e575b600080fd5b6100c16101ec565b6040516100ce9190610807565b60405180910390f35b6100ea6100e53660046107de565b61027e565b60405190151581526020016100ce565b6002545b6040519081526020016100ce565b6100ea61011a3660046107a3565b610294565b604051601281526020016100ce565b6100ea61013c3660046107de565b61034a565b6100fe61014f366004610750565b6001600160a01b031660009081526020819052604090205490565b6100c1610381565b6005546040516001600160a01b0390911681526020016100ce565b6100ea61019b3660046107de565b610390565b6100ea6101ae3660046107de565b61042b565b6100fe6101c1366004610771565b6001600160a01b03918216600090815260016020908152604080832093909416825291909152205490565b6060600380546101fb90610889565b80601f016020809104026020016040519081016040528092919081815260200182805461022790610889565b80156102745780601f1061024957610100808354040283529160200191610274565b820191906000526020600020905b81548152906001019060200180831161025757829003601f168201915b5050505050905090565b600061028b338484610438565b50600192915050565b60006102a184848461055c565b6001600160a01b03841660009081526001602090815260408083203384529091529020548281101561032b5760405162461bcd60e51b815260206004820152602860248201527f45524332303a207472616e7366657220616d6f756e74206578636565647320616044820152676c6c6f77616e636560c01b60648201526084015b60405180910390fd5b61033f853361033a8685610872565b610438565b506001949350505050565b3360008181526001602090815260408083206001600160a01b0387168452909152812054909161028b91859061033a90869061085a565b6060600480546101fb90610889565b3360009081526001602090815260408083206001600160a01b0386168452909152812054828110156104125760405162461bcd60e51b815260206004820152602560248201527f45524332303a2064656372656173656420616c6c6f77616e63652062656c6f77604482015264207a65726f60d81b6064820152608401610322565b610421338561033a8685610872565b5060019392505050565b600061028b33848461055c565b6001600160a01b03831661049a5760405162461bcd60e51b8152602060048201526024808201527f45524332303a20617070726f76652066726f6d20746865207a65726f206164646044820152637265737360e01b6064820152608401610322565b6001600160a01b0382166104fb5760405162461bcd60e51b815260206004820152602260248201527f45524332303a20617070726f766520746f20746865207a65726f206164647265604482015261737360f01b6064820152608401610322565b6001600160a01b0383811660008181526001602090815260408083209487168084529482529182902085905590518481527f8c5be1e5ebec7d5bd14f71427d1e84f3dd0314c0f7b2291e5b200ac8c7c3b925910160405180910390a3505050565b6001600160a01b0383166105c05760405162461bcd60e51b815260206004820152602560248201527f45524332303a207472616e736665722066726f6d20746865207a65726f206164604482015264647265737360d81b6064820152608401610322565b6001600160a01b0382166106225760405162461bcd60e51b815260206004820152602360248201527f45524332303a207472616e7366657220746f20746865207a65726f206164647260448201526265737360e81b6064820152608401610322565b6001600160a01b0383166000908152602081905260409020548181101561069a5760405162461bcd60e51b815260206004820152602660248201527f45524332303a207472616e7366657220616d6f756e7420657863656564732062604482015265616c616e636560d01b6064820152608401610322565b6106a48282610872565b6001600160a01b0380861660009081526020819052604080822093909355908516815290812080548492906106da90849061085a565b92505081905550826001600160a01b0316846001600160a01b03167fddf252ad1be2c89b69c2b068fc378daa952ba7f163c4a11628f55a4df523b3ef8460405161072691815260200190565b60405180910390a350505050565b80356001600160a01b038116811461074b57600080fd5b919050565b600060208284031215610761578081fd5b61076a82610734565b9392505050565b60008060408385031215610783578081fd5b61078c83610734565b915061079a60208401610734565b90509250929050565b6000806000606084860312156107b7578081fd5b6107c084610734565b92506107ce60208501610734565b9150604084013590509250925092565b600080604083850312156107f0578182fd5b6107f983610734565b946020939093013593505050565b6000602080835283518082850152825b8181101561083357858101830151858201604001528201610817565b818111156108445783604083870101525b50601f01601f1916929092016040019392505050565b6000821982111561086d5761086d6108c4565b500190565b600082821015610884576108846108c4565b500390565b600181811c9082168061089d57607f821691505b602082108114156108be57634e487b7160e01b600052602260045260246000fd5b50919050565b634e487b7160e01b600052601160045260246000fdfea2646970667358221220fe01e5132c0ba44064e3f37fdb213d059d0353c413e6e828342ff508b6eaf78a64736f6c63430008040033ddf252ad1be2c89b69c2b068fc378daa952ba7f163c4a11628f55a4df523b3ef",
    "sourcePath": "/home/savel/Alyra/exercice-ico/contracts/DsToken.sol",
    "compiler": {
        "name": "solc",
        "version": "0.8.4+commit.c7e474f2"
    },
    "functionHashes": {
        "allowance(address,address)": "dd62ed3e",
        "approve(address,uint256)": "095ea7b3",
        "balanceOf(address)": "70a08231",
        "decimals()": "313ce567",
        "decreaseAllowance(address,uint256)": "a457c2d7",
        "increaseAllowance(address,uint256)": "39509351",
        "name()": "06fdde03",
        "symbol()": "95d89b41",
        "tokenOwner()": "a3e67610",
        "totalSupply()": "18160ddd",
        "transfer(address,uint256)": "a9059cbb",
        "transferFrom(address,address,uint256)": "23b872dd"
    },
    "gasEstimates": {
        "creation": {
            "codeDepositCost": "464000",
            "executionCost": "infinite",
            "totalCost": "infinite"
        },
        "external": {
            "allowance(address,address)": "infinite",
            "approve(address,uint256)": "22519",
            "balanceOf(address)": "1240",
            "decimals()": "266",
            "decreaseAllowance(address,uint256)": "23612",
            "increaseAllowance(address,uint256)": "23645",
            "name()": "infinite",
            "symbol()": "infinite",
            "tokenOwner()": "1045",
            "totalSupply()": "1026",
            "transfer(address,uint256)": "44517",
            "transferFrom(address,address,uint256)": "infinite"
        }
    }
}