{
    "contractName": "TokenCalculator",
    "abi": [
        {
            "inputs": [
                {
                    "internalType": "address",
                    "name": "tokenContractAddress_",
                    "type": "address"
                },
                {
                    "internalType": "uint256",
                    "name": "operationPrice_",
                    "type": "uint256"
                }
            ],
            "stateMutability": "nonpayable",
            "type": "constructor"
        },
        {
            "anonymous": false,
            "inputs": [
                {
                    "indexed": false,
                    "internalType": "address",
                    "name": "sender",
                    "type": "address"
                },
                {
                    "indexed": false,
                    "internalType": "int256",
                    "name": "nb1",
                    "type": "int256"
                },
                {
                    "indexed": false,
                    "internalType": "int256",
                    "name": "nb2",
                    "type": "int256"
                },
                {
                    "indexed": false,
                    "internalType": "int256",
                    "name": "_result",
                    "type": "int256"
                }
            ],
            "name": "Add",
            "type": "event"
        },
        {
            "anonymous": false,
            "inputs": [
                {
                    "indexed": true,
                    "internalType": "address",
                    "name": "sender",
                    "type": "address"
                },
                {
                    "indexed": false,
                    "internalType": "uint256",
                    "name": "nbTokens",
                    "type": "uint256"
                }
            ],
            "name": "Bought",
            "type": "event"
        },
        {
            "anonymous": false,
            "inputs": [
                {
                    "indexed": false,
                    "internalType": "address",
                    "name": "sender",
                    "type": "address"
                },
                {
                    "indexed": false,
                    "internalType": "int256",
                    "name": "nb1",
                    "type": "int256"
                },
                {
                    "indexed": false,
                    "internalType": "int256",
                    "name": "nb2",
                    "type": "int256"
                },
                {
                    "indexed": false,
                    "internalType": "int256",
                    "name": "_result",
                    "type": "int256"
                }
            ],
            "name": "Div",
            "type": "event"
        },
        {
            "anonymous": false,
            "inputs": [
                {
                    "indexed": false,
                    "internalType": "address",
                    "name": "sender",
                    "type": "address"
                },
                {
                    "indexed": false,
                    "internalType": "int256",
                    "name": "nb1",
                    "type": "int256"
                },
                {
                    "indexed": false,
                    "internalType": "int256",
                    "name": "nb2",
                    "type": "int256"
                },
                {
                    "indexed": false,
                    "internalType": "int256",
                    "name": "_result",
                    "type": "int256"
                }
            ],
            "name": "Mod",
            "type": "event"
        },
        {
            "anonymous": false,
            "inputs": [
                {
                    "indexed": false,
                    "internalType": "address",
                    "name": "sender",
                    "type": "address"
                },
                {
                    "indexed": false,
                    "internalType": "int256",
                    "name": "nb1",
                    "type": "int256"
                },
                {
                    "indexed": false,
                    "internalType": "int256",
                    "name": "nb2",
                    "type": "int256"
                },
                {
                    "indexed": false,
                    "internalType": "int256",
                    "name": "_result",
                    "type": "int256"
                }
            ],
            "name": "Mul",
            "type": "event"
        },
        {
            "anonymous": false,
            "inputs": [
                {
                    "indexed": false,
                    "internalType": "address",
                    "name": "sender",
                    "type": "address"
                },
                {
                    "indexed": false,
                    "internalType": "int256",
                    "name": "nb1",
                    "type": "int256"
                },
                {
                    "indexed": false,
                    "internalType": "int256",
                    "name": "nb2",
                    "type": "int256"
                },
                {
                    "indexed": false,
                    "internalType": "int256",
                    "name": "_result",
                    "type": "int256"
                }
            ],
            "name": "Sub",
            "type": "event"
        },
        {
            "anonymous": false,
            "inputs": [
                {
                    "indexed": true,
                    "internalType": "address",
                    "name": "sender",
                    "type": "address"
                },
                {
                    "indexed": false,
                    "internalType": "uint256",
                    "name": "tokensAmount",
                    "type": "uint256"
                }
            ],
            "name": "Withdrew",
            "type": "event"
        },
        {
            "inputs": [
                {
                    "internalType": "int256",
                    "name": "nb1",
                    "type": "int256"
                },
                {
                    "internalType": "int256",
                    "name": "nb2",
                    "type": "int256"
                }
            ],
            "name": "add",
            "outputs": [
                {
                    "internalType": "int256",
                    "name": "",
                    "type": "int256"
                }
            ],
            "stateMutability": "nonpayable",
            "type": "function"
        },
        {
            "inputs": [],
            "name": "calculatorProfit",
            "outputs": [
                {
                    "internalType": "uint256",
                    "name": "",
                    "type": "uint256"
                }
            ],
            "stateMutability": "view",
            "type": "function"
        },
        {
            "inputs": [
                {
                    "internalType": "uint256",
                    "name": "nbTokens",
                    "type": "uint256"
                }
            ],
            "name": "calculatorTokenCredit",
            "outputs": [],
            "stateMutability": "nonpayable",
            "type": "function"
        },
        {
            "inputs": [
                {
                    "internalType": "address",
                    "name": "account",
                    "type": "address"
                }
            ],
            "name": "calculatorTokenCreditOf",
            "outputs": [
                {
                    "internalType": "uint256",
                    "name": "",
                    "type": "uint256"
                }
            ],
            "stateMutability": "view",
            "type": "function"
        },
        {
            "inputs": [
                {
                    "internalType": "int256",
                    "name": "nb1",
                    "type": "int256"
                },
                {
                    "internalType": "int256",
                    "name": "nb2",
                    "type": "int256"
                }
            ],
            "name": "div",
            "outputs": [
                {
                    "internalType": "int256",
                    "name": "",
                    "type": "int256"
                }
            ],
            "stateMutability": "nonpayable",
            "type": "function"
        },
        {
            "inputs": [
                {
                    "internalType": "int256",
                    "name": "nb1",
                    "type": "int256"
                },
                {
                    "internalType": "int256",
                    "name": "nb2",
                    "type": "int256"
                }
            ],
            "name": "modulo",
            "outputs": [
                {
                    "internalType": "int256",
                    "name": "",
                    "type": "int256"
                }
            ],
            "stateMutability": "nonpayable",
            "type": "function"
        },
        {
            "inputs": [
                {
                    "internalType": "int256",
                    "name": "nb1",
                    "type": "int256"
                },
                {
                    "internalType": "int256",
                    "name": "nb2",
                    "type": "int256"
                }
            ],
            "name": "mul",
            "outputs": [
                {
                    "internalType": "int256",
                    "name": "",
                    "type": "int256"
                }
            ],
            "stateMutability": "nonpayable",
            "type": "function"
        },
        {
            "inputs": [],
            "name": "operationPrice",
            "outputs": [
                {
                    "internalType": "uint256",
                    "name": "",
                    "type": "uint256"
                }
            ],
            "stateMutability": "view",
            "type": "function"
        },
        {
            "inputs": [
                {
                    "internalType": "int256",
                    "name": "nb1",
                    "type": "int256"
                },
                {
                    "internalType": "int256",
                    "name": "nb2",
                    "type": "int256"
                }
            ],
            "name": "sub",
            "outputs": [
                {
                    "internalType": "int256",
                    "name": "",
                    "type": "int256"
                }
            ],
            "stateMutability": "nonpayable",
            "type": "function"
        },
        {
            "inputs": [],
            "name": "withdrawTokens",
            "outputs": [],
            "stateMutability": "nonpayable",
            "type": "function"
        }
    ],
    "bytecode": "608060405234801561001057600080fd5b50604051610c89380380610c8983398101604081905261002f9161012d565b600280546001600160a01b0384166001600160a01b03199182168117909255600080549091168217905560408051630a3e676160e41b8152905163a3e6761091600480820192602092909190829003018186803b15801561008f57600080fd5b505afa1580156100a3573d6000803e3d6000fd5b505050506040513d601f19601f820116820180604052508101906100c7919061010c565b600380546001600160a01b0319166001600160a01b039290921691909117905560055550610158565b80516001600160a01b038116811461010757600080fd5b919050565b60006020828403121561011d578081fd5b610126826100f0565b9392505050565b6000806040838503121561013f578081fd5b610148836100f0565b9150602083015190509250929050565b610b22806101676000396000f3fe608060405234801561001057600080fd5b506004361061009e5760003560e01c80638d8f2adb116100665780638d8f2adb14610121578063a12dc97114610129578063a5f3c23b14610131578063adefc37b14610144578063bbe93d911461015757600080fd5b8063121c3169146100a357806343509138146100c85780635e925745146100db5780637da0fe84146100e35780638d6d9d8e1461010c575b600080fd5b6100b66100b1366004610829565b61016a565b60405190815260200160405180910390f35b6100b66100d6366004610829565b610241565b6005546100b6565b6100b66100f13660046107db565b6001600160a01b031660009081526001602052604090205490565b61011f61011a36600461084a565b6102fd565b005b61011f6103e5565b6100b661057d565b6100b661013f366004610829565b6105fe565b6100b6610152366004610829565b61069d565b6100b6610165366004610829565b61073c565b60055433600090815260016020526040812054909111156101a65760405162461bcd60e51b815260040161019d906108a0565b60405180910390fd5b816101c35760405162461bcd60e51b815260040161019d90610908565b6101cd8284610aac565b60045560055433600090815260016020526040812080549091906101f2908490610a95565b90915550506004546040517f6ee05db259e2c75313fe23e55e54d32f8e276c8579262c80d1d23d1736f1cfc29161022f913391879187919061087a565b60405180910390a15060045492915050565b60055433600090815260016020526040812054909111156102745760405162461bcd60e51b815260040161019d906108a0565b816102915760405162461bcd60e51b815260040161019d90610908565b61029b82846109a5565b60045560055433600090815260016020526040812080549091906102c0908490610a95565b90915550506004546040517f32adabaab0fd62df5e0ccd310898a46217e97b7ccad549e2f5872300a4c38b999161022f913391879187919061087a565b6000546040516323b872dd60e01b8152336004820152306024820152604481018390526001600160a01b03909116906323b872dd90606401602060405180830381600087803b15801561034f57600080fd5b505af1158015610363573d6000803e3d6000fd5b505050506040513d601f19601f820116820180604052508101906103879190610809565b5033600090815260016020526040812080548392906103a790849061098d565b909155505060405181815233907fc55650ccda1011e1cdc769b1fbf546ebb8c97800b6072b49e06cd560305b1d67906020015b60405180910390a250565b6003546001600160a01b0316331461045d5760405162461bcd60e51b815260206004820152603560248201527f546f6b656e43616c63756c61746f723a204f6e6c7920746f6b656e734f776e656044820152741c8818d85b881dda5d1a191c985dc81c1c9bd99a5d605a1b606482015260840161019d565b61046561057d565b6104c05760405162461bcd60e51b815260206004820152602660248201527f546f6b656e43616c63756c61746f723a204e6f2070726f66697420746f20776960448201526574686472617760d01b606482015260840161019d565b6000546040516323b872dd60e01b81523060048201523360248201524760448201819052916001600160a01b0316906323b872dd90606401602060405180830381600087803b15801561051257600080fd5b505af1158015610526573d6000803e3d6000fd5b505050506040513d601f19601f8201168201806040525081019061054a9190610809565b5060405181815233907fb244b9a17ad633c6e83b7983ee04320484956a68ddbe96a0b70dfca1cf19d723906020016103da565b600080546040516370a0823160e01b81523060048201526001600160a01b03909116906370a082319060240160206040518083038186803b1580156105c157600080fd5b505afa1580156105d5573d6000803e3d6000fd5b505050506040513d601f19601f820116820180604052508101906105f99190610862565b905090565b60055433600090815260016020526040812054909111156106315760405162461bcd60e51b815260040161019d906108a0565b61063b828461094c565b6004556005543360009081526001602052604081208054909190610660908490610a95565b90915550506004546040517fddc8b811a3df463ed6dc9f3801c74ea7577bd748cb50807dd1c545d67fdbabaa9161022f913391879187919061087a565b60055433600090815260016020526040812054909111156106d05760405162461bcd60e51b815260040161019d906108a0565b6106da8284610a56565b60045560055433600090815260016020526040812080549091906106ff908490610a95565b90915550506004546040517f0e4c87ef17996acd138664094693fa265888c3aef77146f56bd5ad845c8c98bb9161022f913391879187919061087a565b600554336000908152600160205260408120549091111561076f5760405162461bcd60e51b815260040161019d906108a0565b61077982846109d3565b600455600554336000908152600160205260408120805490919061079e908490610a95565b90915550506004546040517fc37c147617a73d8e64bc333614b1d85d97ee02b1d6aa350dd5c945dfb605eff09161022f913391879187919061087a565b6000602082840312156107ec578081fd5b81356001600160a01b0381168114610802578182fd5b9392505050565b60006020828403121561081a578081fd5b81518015158114610802578182fd5b6000806040838503121561083b578081fd5b50508035926020909101359150565b60006020828403121561085b578081fd5b5035919050565b600060208284031215610873578081fd5b5051919050565b6001600160a01b0394909416845260208401929092526040830152606082015260800190565b60208082526042908201527f546f6b656e43616c63756c61746f723a204e6f7420656e6f7567682043616c6360408201527f756c61746f722063726564697420746f20706572666f726d206f70657261746960608201526137b760f11b608082015260a00190565b60208082526024908201527f546f6b656e43616c63756c61746f723a2043616e206e6f7420646976696465206040820152630627920360e41b606082015260800190565b600080821280156001600160ff1b038490038513161561096e5761096e610ac0565b600160ff1b839003841281161561098757610987610ac0565b50500190565b600082198211156109a0576109a0610ac0565b500190565b6000826109b4576109b4610ad6565b600160ff1b8214600019841416156109ce576109ce610ac0565b500590565b60006001600160ff1b03818413828413808216868404861116156109f9576109f9610ac0565b600160ff1b84871282811687830589121615610a1757610a17610ac0565b858712925087820587128484161615610a3257610a32610ac0565b87850587128184161615610a4857610a48610ac0565b505050929093029392505050565b60008083128015600160ff1b850184121615610a7457610a74610ac0565b6001600160ff1b0384018313811615610a8f57610a8f610ac0565b50500390565b600082821015610aa757610aa7610ac0565b500390565b600082610abb57610abb610ad6565b500790565b634e487b7160e01b600052601160045260246000fd5b634e487b7160e01b600052601260045260246000fdfea26469706673582212209c7cb61c7b54c0d1d89a6fcb3eb678ba14b175e657dff77d7fed5f3892c8f99764736f6c63430008040033",
    "sourcePath": "/home/savel/Alyra/exercice-ico/contracts/TokenCalculator.sol",
    "compiler": {
        "name": "solc",
        "version": "0.8.4+commit.c7e474f2"
    },
    "functionHashes": {
        "add(int256,int256)": "a5f3c23b",
        "calculatorProfit()": "a12dc971",
        "calculatorTokenCredit(uint256)": "8d6d9d8e",
        "calculatorTokenCreditOf(address)": "7da0fe84",
        "div(int256,int256)": "43509138",
        "modulo(int256,int256)": "121c3169",
        "mul(int256,int256)": "bbe93d91",
        "operationPrice()": "5e925745",
        "sub(int256,int256)": "adefc37b",
        "withdrawTokens()": "8d8f2adb"
    },
    "gasEstimates": {
        "creation": {
            "codeDepositCost": "570000",
            "executionCost": "infinite",
            "totalCost": "infinite"
        },
        "external": {
            "add(int256,int256)": "47522",
            "calculatorProfit()": "infinite",
            "calculatorTokenCredit(uint256)": "infinite",
            "calculatorTokenCreditOf(address)": "1257",
            "div(int256,int256)": "47470",
            "modulo(int256,int256)": "47401",
            "mul(int256,int256)": "47725",
            "operationPrice()": "1025",
            "sub(int256,int256)": "47538",
            "withdrawTokens()": "infinite"
        }
    }
}